{
  "abi": [
    {
      "inputs": [
        {
          "internalType": "address",
          "name": "_operator",
          "type": "address"
        }
      ],
      "stateMutability": "nonpayable",
      "type": "constructor"
    },
    {
      "inputs": [
        {
          "internalType": "address",
          "name": "allowedContract",
          "type": "address"
        }
      ],
      "name": "allow",
      "outputs": [],
      "stateMutability": "nonpayable",
      "type": "function"
    },
    {
      "inputs": [
        {
          "internalType": "address",
          "name": "msgSender",
          "type": "address"
        },
        {
          "internalType": "address",
          "name": "",
          "type": "address"
        },
        {
          "internalType": "uint256",
          "name": "amount",
          "type": "uint256"
        }
      ],
      "name": "borrowAllowed",
      "outputs": [
        {
          "internalType": "bool",
          "name": "",
          "type": "bool"
        }
      ],
      "stateMutability": "nonpayable",
      "type": "function"
    },
    {
      "inputs": [
        {
          "internalType": "address",
          "name": "",
          "type": "address"
        }
      ],
      "name": "contractAllowlist",
      "outputs": [
        {
          "internalType": "bool",
          "name": "",
          "type": "bool"
        }
      ],
      "stateMutability": "view",
      "type": "function"
    },
    {
      "inputs": [
        {
          "internalType": "address",
          "name": "",
          "type": "address"
        },
        {
          "internalType": "uint256",
          "name": "",
          "type": "uint256"
        }
      ],
      "name": "dailyBorrows",
      "outputs": [
        {
          "internalType": "uint256",
          "name": "",
          "type": "uint256"
        }
      ],
      "stateMutability": "view",
      "type": "function"
    },
    {
      "inputs": [
        {
          "internalType": "address",
          "name": "",
          "type": "address"
        }
      ],
      "name": "dailyLimits",
      "outputs": [
        {
          "internalType": "uint256",
          "name": "",
          "type": "uint256"
        }
      ],
      "stateMutability": "view",
      "type": "function"
    },
    {
      "inputs": [
        {
          "internalType": "address",
          "name": "deniedContract",
          "type": "address"
        }
      ],
      "name": "deny",
      "outputs": [],
      "stateMutability": "nonpayable",
      "type": "function"
    },
    {
      "inputs": [
        {
          "internalType": "uint256",
          "name": "amount",
          "type": "uint256"
        }
      ],
      "name": "onRepay",
      "outputs": [],
      "stateMutability": "nonpayable",
      "type": "function"
    },
    {
      "inputs": [],
      "name": "operator",
      "outputs": [
        {
          "internalType": "address",
          "name": "",
          "type": "address"
        }
      ],
      "stateMutability": "view",
      "type": "function"
    },
    {
      "inputs": [
        {
          "internalType": "address",
          "name": "market",
          "type": "address"
        },
        {
          "internalType": "uint256",
          "name": "limit",
          "type": "uint256"
        }
      ],
      "name": "setDailyLimit",
      "outputs": [],
      "stateMutability": "nonpayable",
      "type": "function"
    },
    {
      "inputs": [
        {
          "internalType": "address",
          "name": "_operator",
          "type": "address"
        }
      ],
      "name": "setOperator",
      "outputs": [],
      "stateMutability": "nonpayable",
      "type": "function"
    }
  ],
  "bytecode": {
    "object": "0x608060405234801561001057600080fd5b5060405161063438038061063483398101604081905261002f91610054565b600080546001600160a01b0319166001600160a01b0392909216919091179055610084565b60006020828403121561006657600080fd5b81516001600160a01b038116811461007d57600080fd5b9392505050565b6105a1806100936000396000f3fe608060405234801561001057600080fd5b506004361061009e5760003560e01c8063aa81a2b511610066578063aa81a2b514610147578063b3ab15fb1461017a578063d7bffc921461018d578063da3d454c146101ad578063ff9913e8146101c057600080fd5b8063081e6641146100a3578063268951e6146100b85780632803212f146100f6578063570ca735146101095780639c52a7f114610134575b600080fd5b6100b66100b1366004610445565b6101d3565b005b6100e36100c636600461047a565b600360209081526000928352604080842090915290825290205481565b6040519081526020015b60405180910390f35b6100b661010436600461047a565b610249565b60005461011c906001600160a01b031681565b6040516001600160a01b0390911681526020016100ed565b6100b66101423660046104a4565b610298565b61016a6101553660046104a4565b60016020526000908152604090205460ff1681565b60405190151581526020016100ed565b6100b66101883660046104a4565b6102e3565b6100e361019b3660046104a4565b60026020526000908152604090205481565b61016a6101bb3660046104bf565b61032f565b6100b66101ce3660046104a4565b6103f4565b60006101e262015180426104fb565b336000908152600360209081526040808320848452909152902054909150821115610226573360009081526003602090815260408083208484529091528120555050565b336000908152600360209081526040808320938352929052208054919091039055565b6000546001600160a01b0316331461027c5760405162461bcd60e51b81526004016102739061051d565b60405180910390fd5b6001600160a01b03909116600090815260026020526040902055565b6000546001600160a01b031633146102c25760405162461bcd60e51b81526004016102739061051d565b6001600160a01b03166000908152600160205260409020805460ff19169055565b6000546001600160a01b0316331461030d5760405162461bcd60e51b81526004016102739061051d565b600080546001600160a01b0319166001600160a01b0392909216919091179055565b60008061033f62015180426104fb565b3360009081526002602052604090205490915080156103b2573360009081526003602090815260408083208584529091529020548190610380908690610544565b1115610391576000925050506103ed565b33600090815260036020908152604080832085845290915290208054850190555b326001600160a01b038716036103cd576001925050506103ed565b5050506001600160a01b03831660009081526001602052604090205460ff165b9392505050565b6000546001600160a01b0316331461041e5760405162461bcd60e51b81526004016102739061051d565b6001600160a01b03166000908152600160208190526040909120805460ff19169091179055565b60006020828403121561045757600080fd5b5035919050565b80356001600160a01b038116811461047557600080fd5b919050565b6000806040838503121561048d57600080fd5b6104968361045e565b946020939093013593505050565b6000602082840312156104b657600080fd5b6103ed8261045e565b6000806000606084860312156104d457600080fd5b6104dd8461045e565b92506104eb6020850161045e565b9150604084013590509250925092565b60008261051857634e487b7160e01b600052601260045260246000fd5b500490565b6020808252600d908201526c27b7363c9037b832b930ba37b960991b604082015260600190565b8082018082111561056557634e487b7160e01b600052601160045260246000fd5b9291505056fea264697066735822122022b654482733f6d237a2da934e28baa5e1f1b02ea15d62a924a0749ffc76683664736f6c63430008130033",
    "linkReferences": {}
  },
  "methodIdentifiers": {
    "allow(address)": "ff9913e8",
    "borrowAllowed(address,address,uint256)": "da3d454c",
    "contractAllowlist(address)": "aa81a2b5",
    "dailyBorrows(address,uint256)": "268951e6",
    "dailyLimits(address)": "d7bffc92",
    "deny(address)": "9c52a7f1",
    "onRepay(uint256)": "081e6641",
    "operator()": "570ca735",
    "setDailyLimit(address,uint256)": "2803212f",
    "setOperator(address)": "b3ab15fb"
  },
  "id": 6
}