{
  "abi": [
    {
      "inputs": [
        {
          "internalType": "uint256",
          "name": "_replenishmentPriceBps",
          "type": "uint256"
        },
        {
          "internalType": "string",
          "name": "_name",
          "type": "string"
        },
        {
          "internalType": "string",
          "name": "_symbol",
          "type": "string"
        },
        {
          "internalType": "address",
          "name": "_operator",
          "type": "address"
        }
      ],
      "stateMutability": "nonpayable",
      "type": "constructor"
    },
    {
      "anonymous": false,
      "inputs": [
        {
          "indexed": true,
          "internalType": "address",
          "name": "market",
          "type": "address"
        }
      ],
      "name": "AddMarket",
      "type": "event"
    },
    {
      "anonymous": false,
      "inputs": [
        {
          "indexed": true,
          "internalType": "address",
          "name": "minter",
          "type": "address"
        }
      ],
      "name": "AddMinter",
      "type": "event"
    },
    {
      "anonymous": false,
      "inputs": [
        {
          "indexed": true,
          "internalType": "address",
          "name": "owner",
          "type": "address"
        },
        {
          "indexed": true,
          "internalType": "address",
          "name": "spender",
          "type": "address"
        },
        {
          "indexed": false,
          "internalType": "uint256",
          "name": "amount",
          "type": "uint256"
        }
      ],
      "name": "Approval",
      "type": "event"
    },
    {
      "anonymous": false,
      "inputs": [
        {
          "indexed": true,
          "internalType": "address",
          "name": "newOperator",
          "type": "address"
        }
      ],
      "name": "ChangeOperator",
      "type": "event"
    },
    {
      "anonymous": false,
      "inputs": [
        {
          "indexed": true,
          "internalType": "address",
          "name": "account",
          "type": "address"
        },
        {
          "indexed": true,
          "internalType": "address",
          "name": "replenisher",
          "type": "address"
        },
        {
          "indexed": true,
          "internalType": "address",
          "name": "market",
          "type": "address"
        },
        {
          "indexed": false,
          "internalType": "uint256",
          "name": "deficit",
          "type": "uint256"
        },
        {
          "indexed": false,
          "internalType": "uint256",
          "name": "replenishmentCost",
          "type": "uint256"
        },
        {
          "indexed": false,
          "internalType": "uint256",
          "name": "replenisherReward",
          "type": "uint256"
        }
      ],
      "name": "ForceReplenish",
      "type": "event"
    },
    {
      "anonymous": false,
      "inputs": [
        {
          "indexed": true,
          "internalType": "address",
          "name": "minter",
          "type": "address"
        }
      ],
      "name": "RemoveMinter",
      "type": "event"
    },
    {
      "anonymous": false,
      "inputs": [
        {
          "indexed": true,
          "internalType": "address",
          "name": "from",
          "type": "address"
        },
        {
          "indexed": true,
          "internalType": "address",
          "name": "to",
          "type": "address"
        },
        {
          "indexed": false,
          "internalType": "uint256",
          "name": "amount",
          "type": "uint256"
        }
      ],
      "name": "Transfer",
      "type": "event"
    },
    {
      "inputs": [],
      "name": "DOMAIN_SEPARATOR",
      "outputs": [
        {
          "internalType": "bytes32",
          "name": "",
          "type": "bytes32"
        }
      ],
      "stateMutability": "view",
      "type": "function"
    },
    {
      "inputs": [],
      "name": "_totalSupply",
      "outputs": [
        {
          "internalType": "uint256",
          "name": "",
          "type": "uint256"
        }
      ],
      "stateMutability": "view",
      "type": "function"
    },
    {
      "inputs": [
        {
          "internalType": "address",
          "name": "user",
          "type": "address"
        }
      ],
      "name": "accrueDueTokens",
      "outputs": [],
      "stateMutability": "nonpayable",
      "type": "function"
    },
    {
      "inputs": [
        {
          "internalType": "address",
          "name": "market_",
          "type": "address"
        }
      ],
      "name": "addMarket",
      "outputs": [],
      "stateMutability": "nonpayable",
      "type": "function"
    },
    {
      "inputs": [
        {
          "internalType": "address",
          "name": "minter_",
          "type": "address"
        }
      ],
      "name": "addMinter",
      "outputs": [],
      "stateMutability": "nonpayable",
      "type": "function"
    },
    {
      "inputs": [
        {
          "internalType": "address",
          "name": "",
          "type": "address"
        },
        {
          "internalType": "address",
          "name": "",
          "type": "address"
        }
      ],
      "name": "allowance",
      "outputs": [
        {
          "internalType": "uint256",
          "name": "",
          "type": "uint256"
        }
      ],
      "stateMutability": "view",
      "type": "function"
    },
    {
      "inputs": [
        {
          "internalType": "address",
          "name": "spender",
          "type": "address"
        },
        {
          "internalType": "uint256",
          "name": "amount",
          "type": "uint256"
        }
      ],
      "name": "approve",
      "outputs": [
        {
          "internalType": "bool",
          "name": "",
          "type": "bool"
        }
      ],
      "stateMutability": "nonpayable",
      "type": "function"
    },
    {
      "inputs": [
        {
          "internalType": "address",
          "name": "user",
          "type": "address"
        }
      ],
      "name": "balanceOf",
      "outputs": [
        {
          "internalType": "uint256",
          "name": "",
          "type": "uint256"
        }
      ],
      "stateMutability": "view",
      "type": "function"
    },
    {
      "inputs": [
        {
          "internalType": "address",
          "name": "",
          "type": "address"
        }
      ],
      "name": "balances",
      "outputs": [
        {
          "internalType": "uint256",
          "name": "",
          "type": "uint256"
        }
      ],
      "stateMutability": "view",
      "type": "function"
    },
    {
      "inputs": [
        {
          "internalType": "uint256",
          "name": "amount",
          "type": "uint256"
        }
      ],
      "name": "burn",
      "outputs": [],
      "stateMutability": "nonpayable",
      "type": "function"
    },
    {
      "inputs": [],
      "name": "claimOperator",
      "outputs": [],
      "stateMutability": "nonpayable",
      "type": "function"
    },
    {
      "inputs": [
        {
          "internalType": "address",
          "name": "",
          "type": "address"
        }
      ],
      "name": "debts",
      "outputs": [
        {
          "internalType": "uint256",
          "name": "",
          "type": "uint256"
        }
      ],
      "stateMutability": "view",
      "type": "function"
    },
    {
      "inputs": [],
      "name": "decimals",
      "outputs": [
        {
          "internalType": "uint8",
          "name": "",
          "type": "uint8"
        }
      ],
      "stateMutability": "view",
      "type": "function"
    },
    {
      "inputs": [
        {
          "internalType": "address",
          "name": "user",
          "type": "address"
        }
      ],
      "name": "deficitOf",
      "outputs": [
        {
          "internalType": "uint256",
          "name": "",
          "type": "uint256"
        }
      ],
      "stateMutability": "view",
      "type": "function"
    },
    {
      "inputs": [
        {
          "internalType": "address",
          "name": "",
          "type": "address"
        }
      ],
      "name": "dueTokensAccrued",
      "outputs": [
        {
          "internalType": "uint256",
          "name": "",
          "type": "uint256"
        }
      ],
      "stateMutability": "view",
      "type": "function"
    },
    {
      "inputs": [],
      "name": "invalidateNonce",
      "outputs": [],
      "stateMutability": "nonpayable",
      "type": "function"
    },
    {
      "inputs": [
        {
          "internalType": "address",
          "name": "",
          "type": "address"
        }
      ],
      "name": "lastUpdated",
      "outputs": [
        {
          "internalType": "uint256",
          "name": "",
          "type": "uint256"
        }
      ],
      "stateMutability": "view",
      "type": "function"
    },
    {
      "inputs": [
        {
          "internalType": "address",
          "name": "",
          "type": "address"
        }
      ],
      "name": "markets",
      "outputs": [
        {
          "internalType": "bool",
          "name": "",
          "type": "bool"
        }
      ],
      "stateMutability": "view",
      "type": "function"
    },
    {
      "inputs": [
        {
          "internalType": "address",
          "name": "to",
          "type": "address"
        },
        {
          "internalType": "uint256",
          "name": "amount",
          "type": "uint256"
        }
      ],
      "name": "mint",
      "outputs": [],
      "stateMutability": "nonpayable",
      "type": "function"
    },
    {
      "inputs": [
        {
          "internalType": "address",
          "name": "",
          "type": "address"
        }
      ],
      "name": "minters",
      "outputs": [
        {
          "internalType": "bool",
          "name": "",
          "type": "bool"
        }
      ],
      "stateMutability": "view",
      "type": "function"
    },
    {
      "inputs": [],
      "name": "name",
      "outputs": [
        {
          "internalType": "string",
          "name": "",
          "type": "string"
        }
      ],
      "stateMutability": "view",
      "type": "function"
    },
    {
      "inputs": [
        {
          "internalType": "address",
          "name": "",
          "type": "address"
        }
      ],
      "name": "nonces",
      "outputs": [
        {
          "internalType": "uint256",
          "name": "",
          "type": "uint256"
        }
      ],
      "stateMutability": "view",
      "type": "function"
    },
    {
      "inputs": [
        {
          "internalType": "address",
          "name": "user",
          "type": "address"
        },
        {
          "internalType": "uint256",
          "name": "additionalDebt",
          "type": "uint256"
        }
      ],
      "name": "onBorrow",
      "outputs": [],
      "stateMutability": "nonpayable",
      "type": "function"
    },
    {
      "inputs": [
        {
          "internalType": "address",
          "name": "user",
          "type": "address"
        },
        {
          "internalType": "address",
          "name": "replenisher",
          "type": "address"
        },
        {
          "internalType": "uint256",
          "name": "amount",
          "type": "uint256"
        },
        {
          "internalType": "uint256",
          "name": "replenisherReward",
          "type": "uint256"
        }
      ],
      "name": "onForceReplenish",
      "outputs": [],
      "stateMutability": "nonpayable",
      "type": "function"
    },
    {
      "inputs": [
        {
          "internalType": "address",
          "name": "user",
          "type": "address"
        },
        {
          "internalType": "uint256",
          "name": "repaidDebt",
          "type": "uint256"
        }
      ],
      "name": "onRepay",
      "outputs": [],
      "stateMutability": "nonpayable",
      "type": "function"
    },
    {
      "inputs": [],
      "name": "operator",
      "outputs": [
        {
          "internalType": "address",
          "name": "",
          "type": "address"
        }
      ],
      "stateMutability": "view",
      "type": "function"
    },
    {
      "inputs": [],
      "name": "pendingOperator",
      "outputs": [
        {
          "internalType": "address",
          "name": "",
          "type": "address"
        }
      ],
      "stateMutability": "view",
      "type": "function"
    },
    {
      "inputs": [
        {
          "internalType": "address",
          "name": "owner",
          "type": "address"
        },
        {
          "internalType": "address",
          "name": "spender",
          "type": "address"
        },
        {
          "internalType": "uint256",
          "name": "value",
          "type": "uint256"
        },
        {
          "internalType": "uint256",
          "name": "deadline",
          "type": "uint256"
        },
        {
          "internalType": "uint8",
          "name": "v",
          "type": "uint8"
        },
        {
          "internalType": "bytes32",
          "name": "r",
          "type": "bytes32"
        },
        {
          "internalType": "bytes32",
          "name": "s",
          "type": "bytes32"
        }
      ],
      "name": "permit",
      "outputs": [],
      "stateMutability": "nonpayable",
      "type": "function"
    },
    {
      "inputs": [
        {
          "internalType": "address",
          "name": "minter_",
          "type": "address"
        }
      ],
      "name": "removeMinter",
      "outputs": [],
      "stateMutability": "nonpayable",
      "type": "function"
    },
    {
      "inputs": [],
      "name": "replenishmentPriceBps",
      "outputs": [
        {
          "internalType": "uint256",
          "name": "",
          "type": "uint256"
        }
      ],
      "stateMutability": "view",
      "type": "function"
    },
    {
      "inputs": [
        {
          "internalType": "address",
          "name": "newOperator_",
          "type": "address"
        }
      ],
      "name": "setPendingOperator",
      "outputs": [],
      "stateMutability": "nonpayable",
      "type": "function"
    },
    {
      "inputs": [
        {
          "internalType": "uint256",
          "name": "newReplenishmentPriceBps_",
          "type": "uint256"
        }
      ],
      "name": "setReplenishmentPriceBps",
      "outputs": [],
      "stateMutability": "nonpayable",
      "type": "function"
    },
    {
      "inputs": [
        {
          "internalType": "address",
          "name": "user",
          "type": "address"
        }
      ],
      "name": "signedBalanceOf",
      "outputs": [
        {
          "internalType": "int256",
          "name": "",
          "type": "int256"
        }
      ],
      "stateMutability": "view",
      "type": "function"
    },
    {
      "inputs": [],
      "name": "symbol",
      "outputs": [
        {
          "internalType": "string",
          "name": "",
          "type": "string"
        }
      ],
      "stateMutability": "view",
      "type": "function"
    },
    {
      "inputs": [],
      "name": "totalDueTokensAccrued",
      "outputs": [
        {
          "internalType": "uint256",
          "name": "",
          "type": "uint256"
        }
      ],
      "stateMutability": "view",
      "type": "function"
    },
    {
      "inputs": [],
      "name": "totalSupply",
      "outputs": [
        {
          "internalType": "uint256",
          "name": "",
          "type": "uint256"
        }
      ],
      "stateMutability": "view",
      "type": "function"
    },
    {
      "inputs": [
        {
          "internalType": "address",
          "name": "to",
          "type": "address"
        },
        {
          "internalType": "uint256",
          "name": "amount",
          "type": "uint256"
        }
      ],
      "name": "transfer",
      "outputs": [
        {
          "internalType": "bool",
          "name": "",
          "type": "bool"
        }
      ],
      "stateMutability": "nonpayable",
      "type": "function"
    },
    {
      "inputs": [
        {
          "internalType": "address",
          "name": "from",
          "type": "address"
        },
        {
          "internalType": "address",
          "name": "to",
          "type": "address"
        },
        {
          "internalType": "uint256",
          "name": "amount",
          "type": "uint256"
        }
      ],
      "name": "transferFrom",
      "outputs": [
        {
          "internalType": "bool",
          "name": "",
          "type": "bool"
        }
      ],
      "stateMutability": "nonpayable",
      "type": "function"
    }
  ],
  "bytecode": {
    "object": "0x60c06040523480156200001157600080fd5b5060405162001f7238038062001f728339810160408190526200003491620001ef565b6006849055600062000047848262000314565b50600162000056838262000314565b50600380546001600160a01b0319166001600160a01b03831617905546608052620000806200008e565b60a052506200045e92505050565b60007f8b73c3c69bb8fe3d512ecc4cf759cc79239f7b179b0ffacaa9a75d522b39400f6000604051620000c29190620003e0565b6040805191829003822060208301939093528101919091527fc89efdaa54c0f20c7adf612882df0950f5a951637e0307cdcb4c672f298b8bc660608201524660808201523060a082015260c00160405160208183030381529060405280519060200120905090565b634e487b7160e01b600052604160045260246000fd5b600082601f8301126200015257600080fd5b81516001600160401b03808211156200016f576200016f6200012a565b604051601f8301601f19908116603f011681019082821181831017156200019a576200019a6200012a565b81604052838152602092508683858801011115620001b757600080fd5b600091505b83821015620001db5785820183015181830184015290820190620001bc565b600093810190920192909252949350505050565b600080600080608085870312156200020657600080fd5b845160208601519094506001600160401b03808211156200022657600080fd5b620002348883890162000140565b945060408701519150808211156200024b57600080fd5b506200025a8782880162000140565b606087015190935090506001600160a01b03811681146200027a57600080fd5b939692955090935050565b600181811c908216806200029a57607f821691505b602082108103620002bb57634e487b7160e01b600052602260045260246000fd5b50919050565b601f8211156200030f57600081815260208120601f850160051c81016020861015620002ea5750805b601f850160051c820191505b818110156200030b57828155600101620002f6565b5050505b505050565b81516001600160401b038111156200033057620003306200012a565b620003488162000341845462000285565b84620002c1565b602080601f831160018114620003805760008415620003675750858301515b600019600386901b1c1916600185901b1785556200030b565b600085815260208120601f198616915b82811015620003b15788860151825594840194600190910190840162000390565b5085821015620003d05787850151600019600388901b60f8161c191681555b5050505050600190811b01905550565b6000808354620003f08162000285565b600182811680156200040b5760018114620004215762000452565b60ff198416875282151583028701945062000452565b8760005260208060002060005b85811015620004495781548a8201529084019082016200042e565b50505082870194505b50929695505050505050565b60805160a051611aee620004846000396000610997015260006109670152611aee6000f3fe608060405234801561001057600080fd5b50600436106102325760003560e01c806370a0823111610130578063ac7e534e116100b8578063dcdf770f1161007c578063dcdf770f146104ed578063dd62ed3e146104f6578063f46eccc414610521578063f7f11fb714610544578063fffdfb381461055757600080fd5b8063ac7e534e14610499578063b2c08775146104ac578063d505accf146104bf578063d54e65fb146104d2578063d8d2c648146104da57600080fd5b806393e30633116100ff57806393e306331461044f57806395d89b4114610462578063983b2d561461046a578063a10f84cb1461047d578063a9059cbb1461048657600080fd5b806370a08231146103e65780637ecebe00146103f95780638200b331146104195780638e8f294b1461042c57600080fd5b80633092afd5116101be57806340c10f191161018257806340c10f191461037a57806342966c681461038d578063570ca735146103a05780635a57b46f146103cb5780636866c625146103d357600080fd5b80633092afd514610329578063313ce5671461033c5780633644e5151461035657806336459f041461035e5780633eaaf86b1461037157600080fd5b806318160ddd1161020557806318160ddd146102bb57806323b30572146102c357806323b872dd146102d657806327e235e3146102e95780632ecd4e7d1461030957600080fd5b806306fdde0314610237578063095ea7b3146102555780630a6f93e614610278578063143d4e49146102a6575b600080fd5b61023f610577565b60405161024c91906116c2565b60405180910390f35b61026861026336600461172c565b610605565b604051901515815260200161024c565b610298610286366004611756565b600e6020526000908152604090205481565b60405190815260200161024c565b6102b96102b4366004611756565b610672565b005b6102986106c7565b6102b96102d1366004611778565b6106f0565b6102686102e4366004611791565b6107e8565b6102986102f7366004611756565b60076020526000908152604090205481565b610298610317366004611756565b600c6020526000908152604090205481565b6102b9610337366004611756565b6108f0565b610344601281565b60405160ff909116815260200161024c565b610298610963565b61029861036c366004611756565b6109b9565b61029860025481565b6102b961038836600461172c565b610a8b565b6102b961039b366004611778565b610b12565b6003546103b3906001600160a01b031681565b6040516001600160a01b03909116815260200161024c565b6102b9610b1f565b6102b96103e1366004611756565b610b41565b6102986103f4366004611756565b610c66565b610298610407366004611756565b60096020526000908152604090205481565b610298610427366004611756565b610d26565b61026861043a366004611756565b600b6020526000908152604090205460ff1681565b6102b961045d366004611756565b610db0565b61023f610e26565b6102b9610478366004611756565b610e33565b61029860065481565b61026861049436600461172c565b610ea9565b6004546103b3906001600160a01b031681565b6102b96104ba3660046117cd565b610f37565b6102b96104cd36600461180f565b6110ed565b6102b9611331565b6102b96104e836600461172c565b6113d7565b61029860055481565b610298610504366004611882565b600860209081526000928352604080842090915290825290205481565b61026861052f366004611756565b600a6020526000908152604090205460ff1681565b6102b961055236600461172c565b611470565b610298610565366004611756565b600d6020526000908152604090205481565b60008054610584906118b5565b80601f01602080910402602001604051908101604052809291908181526020018280546105b0906118b5565b80156105fd5780601f106105d2576101008083540402835291602001916105fd565b820191906000526020600020905b8154815290600101906020018083116105e057829003601f168201915b505050505081565b3360008181526008602090815260408083206001600160a01b038716808552925280832085905551919290917f8c5be1e5ebec7d5bd14f71427d1e84f3dd0314c0f7b2291e5b200ac8c7c3b925906106609086815260200190565b60405180910390a35060015b92915050565b6003546001600160a01b031633146106a55760405162461bcd60e51b815260040161069c906118ef565b60405180910390fd5b600480546001600160a01b0319166001600160a01b0392909216919091179055565b600060025460055411156106db5750600090565b6005546002546106eb919061192c565b905090565b6003546001600160a01b0316331461071a5760405162461bcd60e51b815260040161069c906118ef565b600081116107755760405162461bcd60e51b815260206004820152602260248201527f7265706c656e6973686d656e74207072696365206d757374206265206f766572604482015261020360f41b606482015260840161069c565b620f42408111156107e35760405162461bcd60e51b815260206004820152603260248201527f5265706c656e6973686d656e742070726963652063616e6e6f742065786365656044820152713210189818102227a620903832b91022212960711b606482015260840161069c565b600655565b6001600160a01b038316600090815260086020908152604080832033845290915281205460001981146108445761081f838261192c565b6001600160a01b03861660009081526008602090815260408083203384529091529020555b8261084e86610c66565b101561086c5760405162461bcd60e51b815260040161069c9061193f565b6001600160a01b0385166000908152600760205260408120805485929061089490849061192c565b90915550506001600160a01b0380851660008181526007602052604090819020805487019055519091871690600080516020611a99833981519152906108dd9087815260200190565b60405180910390a3506001949350505050565b6003546001600160a01b0316331461091a5760405162461bcd60e51b815260040161069c906118ef565b6001600160a01b0381166000818152600a6020526040808220805460ff19169055517f2f91b591fc56ac0917953ad01ec225524ee5ef0555213e4c8a9d8c9728ee7ffb9190a250565b60007f00000000000000000000000000000000000000000000000000000000000000004614610994576106eb611544565b507f000000000000000000000000000000000000000000000000000000000000000090565b6001600160a01b0381166000908152600c6020908152604080832054600e90925282205482906301e133809083906109f1904261192c565b6109fb919061196d565b610a059190611984565b6001600160a01b038516600090815260076020908152604080832054600d9092529091205491925090610a399083906119a6565b1015610a49575060009392505050565b6001600160a01b038416600090815260076020908152604080832054600d90925290912054610a799083906119a6565b610a83919061192c565b949350505050565b336000908152600a602052604090205460ff16151560011480610ab857506003546001600160a01b031633145b610b045760405162461bcd60e51b815260206004820152601860248201527f4f4e4c59204d494e54455253204f52204f50455241544f520000000000000000604482015260640161069c565b610b0e82826115de565b5050565b610b1c3382611638565b50565b336000908152600960205260408120805491610b3a836119b9565b9190505550565b6001600160a01b0381166000908152600c6020908152604080832054600e90925290912054429003610b71575050565b6001600160a01b0382166000908152600e60205260408120546301e13380908390610b9c904261192c565b610ba6919061196d565b610bb09190611984565b90506000811180610bd757506001600160a01b0383166000908152600e6020526040902054155b15610c61576001600160a01b0383166000908152600d602052604081208054839290610c049084906119a6565b925050819055508060056000828254610c1d91906119a6565b90915550506001600160a01b0383166000818152600e6020908152604080832042905551848152919291600080516020611a99833981519152910160405180910390a35b505050565b6001600160a01b0381166000908152600c6020908152604080832054600e90925282205482906301e13380908390610c9e904261192c565b610ca8919061196d565b610cb29190611984565b6001600160a01b038516600090815260076020908152604080832054600d9092529091205491925090610ce69083906119a6565b1115610cf6575060009392505050565b6001600160a01b0384166000908152600d60209081526040808320546007909252909120548291610a799161192c565b6001600160a01b0381166000908152600c6020908152604080832054600e90925282205482906301e13380908390610d5e904261192c565b610d68919061196d565b610d729190611984565b6001600160a01b0385166000908152600d60209081526040808320546007909252909120549192508291610da691906119d2565b610a8391906119d2565b6003546001600160a01b03163314610dda5760405162461bcd60e51b815260040161069c906118ef565b6001600160a01b0381166000818152600b6020526040808220805460ff19166001179055517fc3dfb88ee5301cecf05761fb2728064e5b641524346ae69b9ba80394631bf11f9190a250565b60018054610584906118b5565b6003546001600160a01b03163314610e5d5760405162461bcd60e51b815260040161069c906118ef565b6001600160a01b0381166000818152600a6020526040808220805460ff19166001179055517f16baa937b08d58713325f93ac58b8a9369a4359bbefb4957d6d9b402735722ab9190a250565b600081610eb533610c66565b1015610ed35760405162461bcd60e51b815260040161069c9061193f565b3360009081526007602052604081208054849290610ef290849061192c565b90915550506001600160a01b03831660008181526007602052604090819020805485019055513390600080516020611a99833981519152906106609086815260200190565b336000908152600b602052604090205460ff16610fa55760405162461bcd60e51b815260206004820152602660248201527f4f6e6c79206d61726b6574732063616e2063616c6c206f6e466f7263655265706044820152650d8cadcd2e6d60d31b606482015260840161069c565b6000610fb0856109b9565b905060008111610fef5760405162461bcd60e51b815260206004820152600a602482015269139bc81919599a58da5d60b21b604482015260640161069c565b828110156110325760405162461bcd60e51b815260206004820152601060248201526f105b5bdd5b9d080f881919599a58da5d60821b604482015260640161069c565b600061271060065485611045919061196d565b61104f9190611984565b905061105a86610b41565b6001600160a01b0386166000908152600c6020526040812080548392906110829084906119a6565b90915550611092905086856115de565b604080518581526020810183905290810184905233906001600160a01b0387811691908916907f6a03700072ec60131e7e4ff249dad34d458e1e5785dbfa8146b2265997fbf6869060600160405180910390a4505050505050565b4284101561113d5760405162461bcd60e51b815260206004820152601760248201527f5045524d49545f444541444c494e455f45585049524544000000000000000000604482015260640161069c565b60006001611149610963565b6001600160a01b038a811660008181526009602090815260409182902080546001810190915582517f6e71edae12b1b97f4d1f60370fef10105fa2faae0126114a169c64845d6126c98184015280840194909452938d166060840152608083018c905260a083019390935260c08083018b90528151808403909101815260e08301909152805192019190912061190160f01b6101008301526101028201929092526101228101919091526101420160408051601f198184030181528282528051602091820120600084529083018083525260ff871690820152606081018590526080810184905260a0016020604051602081039080840390855afa158015611255573d6000803e3d6000fd5b5050604051601f1901519150506001600160a01b0381161580159061128b5750876001600160a01b0316816001600160a01b0316145b6112c85760405162461bcd60e51b815260206004820152600e60248201526d24a72b20a624a22fa9a4a3a722a960911b604482015260640161069c565b6001600160a01b0390811660009081526008602090815260408083208a8516808552908352928190208990555188815291928a16917f8c5be1e5ebec7d5bd14f71427d1e84f3dd0314c0f7b2291e5b200ac8c7c3b925910160405180910390a350505050505050565b6004546001600160a01b031633146113835760405162461bcd60e51b815260206004820152601560248201527427a7262c902822a72224a7239027a822a920aa27a960591b604482015260640161069c565b60048054600380546001600160a01b0383166001600160a01b031991821681179092559091169091556040517f8eb831fe42156caaf4721a87ad40c6e662b893dbeee76d7a3ed2564a318b091c90600090a2565b336000908152600b602052604090205460ff166114365760405162461bcd60e51b815260206004820152601d60248201527f4f6e6c79206d61726b6574732063616e2063616c6c206f6e5265706179000000604482015260640161069c565b61143f82610b41565b6001600160a01b0382166000908152600c60205260408120805483929061146790849061192c565b90915550505050565b336000908152600b602052604090205460ff166114cf5760405162461bcd60e51b815260206004820152601e60248201527f4f6e6c79206d61726b6574732063616e2063616c6c206f6e426f72726f770000604482015260640161069c565b6114d882610b41565b6114e1826109b9565b1561151c5760405162461bcd60e51b815260206004820152600b60248201526a111094881119599a58da5d60aa1b604482015260640161069c565b6001600160a01b0382166000908152600c6020526040812080548392906114679084906119a6565b60007f8b73c3c69bb8fe3d512ecc4cf759cc79239f7b179b0ffacaa9a75d522b39400f600060405161157691906119f9565b6040805191829003822060208301939093528101919091527fc89efdaa54c0f20c7adf612882df0950f5a951637e0307cdcb4c672f298b8bc660608201524660808201523060a082015260c00160405160208183030381529060405280519060200120905090565b80600260008282546115f091906119a6565b90915550506001600160a01b038216600081815260076020908152604080832080548601905551848152600080516020611a9983398151915291015b60405180910390a35050565b8061164283610c66565b10156116605760405162461bcd60e51b815260040161069c9061193f565b6001600160a01b0382166000908152600760205260408120805483929061168890849061192c565b90915550506002805482900390556040518181526000906001600160a01b03841690600080516020611a998339815191529060200161162c565b600060208083528351808285015260005b818110156116ef578581018301518582016040015282016116d3565b506000604082860101526040601f19601f8301168501019250505092915050565b80356001600160a01b038116811461172757600080fd5b919050565b6000806040838503121561173f57600080fd5b61174883611710565b946020939093013593505050565b60006020828403121561176857600080fd5b61177182611710565b9392505050565b60006020828403121561178a57600080fd5b5035919050565b6000806000606084860312156117a657600080fd5b6117af84611710565b92506117bd60208501611710565b9150604084013590509250925092565b600080600080608085870312156117e357600080fd5b6117ec85611710565b93506117fa60208601611710565b93969395505050506040820135916060013590565b600080600080600080600060e0888a03121561182a57600080fd5b61183388611710565b965061184160208901611710565b95506040880135945060608801359350608088013560ff8116811461186557600080fd5b9699959850939692959460a0840135945060c09093013592915050565b6000806040838503121561189557600080fd5b61189e83611710565b91506118ac60208401611710565b90509250929050565b600181811c908216806118c957607f821691505b6020821081036118e957634e487b7160e01b600052602260045260246000fd5b50919050565b6020808252600d908201526c27a7262c9027a822a920aa27a960991b604082015260600190565b634e487b7160e01b600052601160045260246000fd5b8181038181111561066c5761066c611916565b602080825260149082015273496e73756666696369656e742062616c616e636560601b604082015260600190565b808202811582820484141761066c5761066c611916565b6000826119a157634e487b7160e01b600052601260045260246000fd5b500490565b8082018082111561066c5761066c611916565b6000600182016119cb576119cb611916565b5060010190565b81810360008312801583831316838312821617156119f2576119f2611916565b5092915050565b600080835481600182811c915080831680611a1557607f831692505b60208084108203611a3457634e487b7160e01b86526022600452602486fd5b818015611a485760018114611a5d57611a8a565b60ff1986168952841515850289019650611a8a565b60008a81526020902060005b86811015611a825781548b820152908501908301611a69565b505084890196505b50949897505050505050505056feddf252ad1be2c89b69c2b068fc378daa952ba7f163c4a11628f55a4df523b3efa26469706673582212209d83dfe651a09cd54e05e426a3d8ff496b4379ea35485a1cbd0b88f20010a97364736f6c63430008130033",
    "linkReferences": {}
  },
  "methodIdentifiers": {
    "DOMAIN_SEPARATOR()": "3644e515",
    "_totalSupply()": "3eaaf86b",
    "accrueDueTokens(address)": "6866c625",
    "addMarket(address)": "93e30633",
    "addMinter(address)": "983b2d56",
    "allowance(address,address)": "dd62ed3e",
    "approve(address,uint256)": "095ea7b3",
    "balanceOf(address)": "70a08231",
    "balances(address)": "27e235e3",
    "burn(uint256)": "42966c68",
    "claimOperator()": "d54e65fb",
    "debts(address)": "2ecd4e7d",
    "decimals()": "313ce567",
    "deficitOf(address)": "36459f04",
    "dueTokensAccrued(address)": "fffdfb38",
    "invalidateNonce()": "5a57b46f",
    "lastUpdated(address)": "0a6f93e6",
    "markets(address)": "8e8f294b",
    "mint(address,uint256)": "40c10f19",
    "minters(address)": "f46eccc4",
    "name()": "06fdde03",
    "nonces(address)": "7ecebe00",
    "onBorrow(address,uint256)": "f7f11fb7",
    "onForceReplenish(address,address,uint256,uint256)": "b2c08775",
    "onRepay(address,uint256)": "d8d2c648",
    "operator()": "570ca735",
    "pendingOperator()": "ac7e534e",
    "permit(address,address,uint256,uint256,uint8,bytes32,bytes32)": "d505accf",
    "removeMinter(address)": "3092afd5",
    "replenishmentPriceBps()": "a10f84cb",
    "setPendingOperator(address)": "143d4e49",
    "setReplenishmentPriceBps(uint256)": "23b30572",
    "signedBalanceOf(address)": "8200b331",
    "symbol()": "95d89b41",
    "totalDueTokensAccrued()": "dcdf770f",
    "totalSupply()": "18160ddd",
    "transfer(address,uint256)": "a9059cbb",
    "transferFrom(address,address,uint256)": "23b872dd"
  },
  "id": 7
}