{
  "abi": [
    {
      "inputs": [
        {
          "internalType": "contract IXINV",
          "name": "_xINV",
          "type": "address"
        }
      ],
      "stateMutability": "nonpayable",
      "type": "constructor"
    },
    {
      "inputs": [],
      "name": "balance",
      "outputs": [
        {
          "internalType": "uint256",
          "name": "",
          "type": "uint256"
        }
      ],
      "stateMutability": "view",
      "type": "function"
    },
    {
      "inputs": [],
      "name": "beneficiary",
      "outputs": [
        {
          "internalType": "address",
          "name": "",
          "type": "address"
        }
      ],
      "stateMutability": "view",
      "type": "function"
    },
    {
      "inputs": [
        {
          "internalType": "address",
          "name": "delegatee",
          "type": "address"
        }
      ],
      "name": "delegate",
      "outputs": [],
      "stateMutability": "nonpayable",
      "type": "function"
    },
    {
      "inputs": [
        {
          "internalType": "contract IERC20",
          "name": "_token",
          "type": "address"
        },
        {
          "internalType": "address",
          "name": "_beneficiary",
          "type": "address"
        }
      ],
      "name": "initialize",
      "outputs": [],
      "stateMutability": "nonpayable",
      "type": "function"
    },
    {
      "inputs": [],
      "name": "market",
      "outputs": [
        {
          "internalType": "address",
          "name": "",
          "type": "address"
        }
      ],
      "stateMutability": "view",
      "type": "function"
    },
    {
      "inputs": [],
      "name": "onDeposit",
      "outputs": [],
      "stateMutability": "nonpayable",
      "type": "function"
    },
    {
      "inputs": [
        {
          "internalType": "address",
          "name": "recipient",
          "type": "address"
        },
        {
          "internalType": "uint256",
          "name": "amount",
          "type": "uint256"
        }
      ],
      "name": "pay",
      "outputs": [],
      "stateMutability": "nonpayable",
      "type": "function"
    },
    {
      "inputs": [],
      "name": "token",
      "outputs": [
        {
          "internalType": "contract IERC20",
          "name": "",
          "type": "address"
        }
      ],
      "stateMutability": "view",
      "type": "function"
    },
    {
      "inputs": [],
      "name": "xINV",
      "outputs": [
        {
          "internalType": "contract IXINV",
          "name": "",
          "type": "address"
        }
      ],
      "stateMutability": "view",
      "type": "function"
    }
  ],
  "bytecode": {
    "object": "0x60a060405234801561001057600080fd5b50604051610bae380380610bae83398101604081905261002f91610040565b6001600160a01b0316608052610070565b60006020828403121561005257600080fd5b81516001600160a01b038116811461006957600080fd5b9392505050565b608051610af36100bb6000396000818160fd015281816101f9015281816103d80152818161046b0152818161055c01528181610645015281816106da015261083d0152610af36000f3fe608060405234801561001057600080fd5b50600436106100935760003560e01c806364ee1a311161006657806364ee1a31146100f857806380f556051461011f578063b69ef8a814610132578063c407687614610148578063fc0c546a1461015b57600080fd5b806312c93f591461009857806338af3eed146100a2578063485cc955146100d25780635c19a95c146100e5575b600080fd5b6100a061016e565b005b6002546100b5906001600160a01b031681565b6040516001600160a01b0390911681526020015b60405180910390f35b6100a06100e0366004610961565b610273565b6100a06100f336600461099a565b6104d3565b6100b57f000000000000000000000000000000000000000000000000000000000000000081565b6000546100b5906001600160a01b031681565b61013a6105c5565b6040519081526020016100c9565b6100a06101563660046109be565b610774565b6001546100b5906001600160a01b031681565b6001546040516370a0823160e01b81523060048201526000916001600160a01b0316906370a0823190602401602060405180830381865afa1580156101b7573d6000803e3d6000fd5b505050506040513d601f19601f820116820180604052508101906101db91906109ea565b905080156102705760405163140e25ad60e31b8152600481018290527f00000000000000000000000000000000000000000000000000000000000000006001600160a01b03169063a0712d68906024016020604051808303816000875af115801561024a573d6000803e3d6000fd5b505050506040513d601f19601f8201168201806040525081019061026e91906109ea565b505b50565b6000546001600160a01b0316156102c75760405162461bcd60e51b815260206004820152601360248201527210531491505116481253925512505312569151606a1b60448201526064015b60405180910390fd5b60008054336001600160a01b0319918216179091556001805482166001600160a01b0385811691821790925560028054909316918416918217909255604051632c3e6f0f60e11b81526004810191909152635c19a95c90829063587cde1e90602401602060405180830381865afa158015610346573d6000803e3d6000fd5b505050506040513d601f19601f8201168201806040525081019061036a9190610a03565b6040516001600160e01b031960e084901b1681526001600160a01b039091166004820152602401600060405180830381600087803b1580156103ab57600080fd5b505af11580156103bf573d6000803e3d6000fd5b505060405163095ea7b360e01b81526001600160a01b037f00000000000000000000000000000000000000000000000000000000000000008116600483015260001960248301528516925063095ea7b39150604401602060405180830381865afa158015610431573d6000803e3d6000fd5b505050506040513d601f19601f8201168201806040525081019061045591906109ea565b50604051631e756d0f60e01b81523060048201527f00000000000000000000000000000000000000000000000000000000000000006001600160a01b031690631e756d0f90602401600060405180830381600087803b1580156104b757600080fd5b505af11580156104cb573d6000803e3d6000fd5b505050505050565b6002546001600160a01b031633146104ea57600080fd5b6001546040516317066a5760e21b81526001600160a01b03838116600483015290911690635c19a95c90602401600060405180830381600087803b15801561053157600080fd5b505af1158015610545573d6000803e3d6000fd5b5050604051631e756d0f60e01b81523060048201527f00000000000000000000000000000000000000000000000000000000000000006001600160a01b03169250631e756d0f9150602401600060405180830381600087803b1580156105aa57600080fd5b505af11580156105be573d6000803e3d6000fd5b5050505050565b6001546040516370a0823160e01b815230600482015260009182916001600160a01b03909116906370a0823190602401602060405180830381865afa158015610612573d6000803e3d6000fd5b505050506040513d601f19601f8201168201806040525081019061063691906109ea565b90506000670de0b6b3a76400007f00000000000000000000000000000000000000000000000000000000000000006001600160a01b031663182df0f56040518163ffffffff1660e01b8152600401602060405180830381865afa1580156106a1573d6000803e3d6000fd5b505050506040513d601f19601f820116820180604052508101906106c591906109ea565b6040516370a0823160e01b81523060048201527f00000000000000000000000000000000000000000000000000000000000000006001600160a01b0316906370a0823190602401602060405180830381865afa158015610729573d6000803e3d6000fd5b505050506040513d601f19601f8201168201806040525081019061074d91906109ea565b6107579190610a36565b6107619190610a53565b905061076d8183610a75565b9250505090565b6000546001600160a01b031633146107bc5760405162461bcd60e51b815260206004820152600b60248201526a13d393164813505492d15560aa1b60448201526064016102be565b6001546040516370a0823160e01b81523060048201526000916001600160a01b0316906370a0823190602401602060405180830381865afa158015610805573d6000803e3d6000fd5b505050506040513d601f19601f8201168201806040525081019061082991906109ea565b9050818110156108cf576001600160a01b037f00000000000000000000000000000000000000000000000000000000000000001663852a12e361086c8385610a88565b6040518263ffffffff1660e01b815260040161088a91815260200190565b6020604051808303816000875af11580156108a9573d6000803e3d6000fd5b505050506040513d601f19601f820116820180604052508101906108cd91906109ea565b505b60015460405163a9059cbb60e01b81526001600160a01b038581166004830152602482018590529091169063a9059cbb906044016020604051808303816000875af1158015610922573d6000803e3d6000fd5b505050506040513d601f19601f820116820180604052508101906109469190610a9b565b50505050565b6001600160a01b038116811461027057600080fd5b6000806040838503121561097457600080fd5b823561097f8161094c565b9150602083013561098f8161094c565b809150509250929050565b6000602082840312156109ac57600080fd5b81356109b78161094c565b9392505050565b600080604083850312156109d157600080fd5b82356109dc8161094c565b946020939093013593505050565b6000602082840312156109fc57600080fd5b5051919050565b600060208284031215610a1557600080fd5b81516109b78161094c565b634e487b7160e01b600052601160045260246000fd5b8082028115828204841417610a4d57610a4d610a20565b92915050565b600082610a7057634e487b7160e01b600052601260045260246000fd5b500490565b80820180821115610a4d57610a4d610a20565b81810381811115610a4d57610a4d610a20565b600060208284031215610aad57600080fd5b815180151581146109b757600080fdfea2646970667358221220672ee1fc8aef4a9a9bb8eaaf96a288b47d846f307807881bacd4d2da7d45543764736f6c63430008130033",
    "linkReferences": {}
  },
  "methodIdentifiers": {
    "balance()": "b69ef8a8",
    "beneficiary()": "38af3eed",
    "delegate(address)": "5c19a95c",
    "initialize(address,address)": "485cc955",
    "market()": "80f55605",
    "onDeposit()": "12c93f59",
    "pay(address,uint256)": "c4076876",
    "token()": "fc0c546a",
    "xINV()": "64ee1a31"
  },
  "id": 12
}