{
  "abi": [
    {
      "inputs": [
        {
          "internalType": "address",
          "name": "_operator",
          "type": "address"
        }
      ],
      "stateMutability": "nonpayable",
      "type": "constructor"
    },
    {
      "anonymous": false,
      "inputs": [
        {
          "indexed": true,
          "internalType": "address",
          "name": "newOperator",
          "type": "address"
        }
      ],
      "name": "ChangeOperator",
      "type": "event"
    },
    {
      "anonymous": false,
      "inputs": [
        {
          "indexed": true,
          "internalType": "address",
          "name": "token",
          "type": "address"
        },
        {
          "indexed": false,
          "internalType": "uint256",
          "name": "price",
          "type": "uint256"
        }
      ],
      "name": "RecordDailyLow",
      "type": "event"
    },
    {
      "inputs": [],
      "name": "claimOperator",
      "outputs": [],
      "stateMutability": "nonpayable",
      "type": "function"
    },
    {
      "inputs": [
        {
          "internalType": "address",
          "name": "",
          "type": "address"
        },
        {
          "internalType": "uint256",
          "name": "",
          "type": "uint256"
        }
      ],
      "name": "dailyLows",
      "outputs": [
        {
          "internalType": "uint256",
          "name": "",
          "type": "uint256"
        }
      ],
      "stateMutability": "view",
      "type": "function"
    },
    {
      "inputs": [
        {
          "internalType": "address",
          "name": "",
          "type": "address"
        }
      ],
      "name": "feeds",
      "outputs": [
        {
          "internalType": "contract IChainlinkFeed",
          "name": "feed",
          "type": "address"
        },
        {
          "internalType": "uint8",
          "name": "tokenDecimals",
          "type": "uint8"
        }
      ],
      "stateMutability": "view",
      "type": "function"
    },
    {
      "inputs": [
        {
          "internalType": "address",
          "name": "token",
          "type": "address"
        }
      ],
      "name": "getFeedPrice",
      "outputs": [
        {
          "internalType": "uint256",
          "name": "",
          "type": "uint256"
        }
      ],
      "stateMutability": "view",
      "type": "function"
    },
    {
      "inputs": [
        {
          "internalType": "address",
          "name": "token",
          "type": "address"
        },
        {
          "internalType": "uint256",
          "name": "collateralFactorBps",
          "type": "uint256"
        }
      ],
      "name": "getPrice",
      "outputs": [
        {
          "internalType": "uint256",
          "name": "",
          "type": "uint256"
        }
      ],
      "stateMutability": "nonpayable",
      "type": "function"
    },
    {
      "inputs": [],
      "name": "operator",
      "outputs": [
        {
          "internalType": "address",
          "name": "",
          "type": "address"
        }
      ],
      "stateMutability": "view",
      "type": "function"
    },
    {
      "inputs": [],
      "name": "pendingOperator",
      "outputs": [
        {
          "internalType": "address",
          "name": "",
          "type": "address"
        }
      ],
      "stateMutability": "view",
      "type": "function"
    },
    {
      "inputs": [
        {
          "internalType": "address",
          "name": "token",
          "type": "address"
        },
        {
          "internalType": "contract IChainlinkFeed",
          "name": "feed",
          "type": "address"
        },
        {
          "internalType": "uint8",
          "name": "tokenDecimals",
          "type": "uint8"
        }
      ],
      "name": "setFeed",
      "outputs": [],
      "stateMutability": "nonpayable",
      "type": "function"
    },
    {
      "inputs": [
        {
          "internalType": "address",
          "name": "newOperator_",
          "type": "address"
        }
      ],
      "name": "setPendingOperator",
      "outputs": [],
      "stateMutability": "nonpayable",
      "type": "function"
    },
    {
      "inputs": [
        {
          "internalType": "address",
          "name": "token",
          "type": "address"
        },
        {
          "internalType": "uint256",
          "name": "collateralFactorBps",
          "type": "uint256"
        }
      ],
      "name": "viewPrice",
      "outputs": [
        {
          "internalType": "uint256",
          "name": "",
          "type": "uint256"
        }
      ],
      "stateMutability": "view",
      "type": "function"
    }
  ],
  "bytecode": {
    "object": "0x608060405234801561001057600080fd5b50604051610bae380380610bae83398101604081905261002f91610054565b600080546001600160a01b0319166001600160a01b0392909216919091179055610084565b60006020828403121561006657600080fd5b81516001600160a01b038116811461007d57600080fd5b9392505050565b610b1b806100936000396000f3fe608060405234801561001057600080fd5b506004361061009e5760003560e01c8063949c4fa311610066578063949c4fa31461018a578063ac7e534e1461019d578063ae10561b146101b0578063d54e65fb146101c3578063e1238d9d146101cb57600080fd5b8063143d4e49146100a35780632fba4aa9146100b8578063449e815d14610113578063570ca7351461013457806370c4c23f1461015f575b600080fd5b6100b66100b1366004610828565b6101de565b005b6100ed6100c6366004610828565b6002602052600090815260409020546001600160a01b03811690600160a01b900460ff1682565b604080516001600160a01b03909316835260ff9091166020830152015b60405180910390f35b61012661012136600461084c565b61024f565b60405190815260200161010a565b600054610147906001600160a01b031681565b6040516001600160a01b03909116815260200161010a565b61012661016d36600461084c565b600360209081526000928352604080842090915290825290205481565b61012661019836600461084c565b61043f565b600154610147906001600160a01b031681565b6100b66101be366004610887565b6104ca565b6100b661056d565b6101266101d9366004610828565b610610565b6000546001600160a01b0316331461022d5760405162461bcd60e51b815260206004820152600d60248201526c27a7262c9027a822a920aa27a960991b60448201526064015b60405180910390fd5b600180546001600160a01b0319166001600160a01b0392909216919091179055565b6001600160a01b03828116600090815260026020526040812054909116156103ff57600061027c846106d9565b9050600061028d62015180426108e8565b6001600160a01b03861660009081526003602090815260408083208484529091529020549091508015806102c057508083105b1561032157506001600160a01b038516600081815260036020908152604080832085845282529182902085905590518481528492917fbbf79d525adf40b05f7e2779ec9f3bc352803dc6f9a7ab4512fbde7120d67597910160405180910390a25b8460000361033457829350505050610439565b6001600160a01b03861660009081526003602052604081208161035860018661090a565b81526020019081526020016000205490506000612710878661037a919061091d565b61038491906108e8565b9050600082841180156103975750600083115b6103a157836103a3565b825b90506000811180156103b457508082115b156103f1576000886103c88361271061091d565b6103d291906108e8565b90508681106103e157866103e3565b805b975050505050505050610439565b859650505050505050610439565b60405162461bcd60e51b815260206004820152600f60248201526e141c9a58d9481b9bdd08199bdd5b99608a1b6044820152606401610224565b92915050565b6001600160a01b03828116600090815260026020526040812054909116156103ff57600061046c846106d9565b9050600061047d62015180426108e8565b6001600160a01b03861660009081526003602090815260408083208484529091529020549091508015806104b057508083105b156103215750818460000361033457829350505050610439565b6000546001600160a01b031633146105145760405162461bcd60e51b815260206004820152600d60248201526c27a7262c9027a822a920aa27a960991b6044820152606401610224565b6040805180820182526001600160a01b03938416815260ff92831660208083019182529585166000908152600290965291909420935184549151909216600160a01b026001600160a81b03199091169190921617179055565b6001546001600160a01b031633146105bf5760405162461bcd60e51b815260206004820152601560248201527427a7262c902822a72224a7239027a822a920aa27a960591b6044820152606401610224565b60018054600080546001600160a01b0383166001600160a01b031991821681178355921690925560405190917f8eb831fe42156caaf4721a87ad40c6e662b893dbeee76d7a3ed2564a318b091c91a2565b6001600160a01b03808216600090815260026020526040808220548151633fabe5a360e21b815291519293849391169163feaf968c9160048083019260a09291908290030181865afa15801561066a573d6000803e3d6000fd5b505050506040513d601f19601f8201168201806040525081019061068e9190610953565b505050915050600081136104395760405162461bcd60e51b8152602060048201526012602482015271496e76616c6964206665656420707269636560701b6044820152606401610224565b6000806106e583610610565b6001600160a01b03808516600090815260026020908152604080832054815163313ce56760e01b815291519596509294929093169263313ce56792600480830193928290030181865afa158015610740573d6000803e3d6000fd5b505050506040513d601f19601f8201168201806040525081019061076491906109a3565b6001600160a01b038516600090815260026020526040902054909150600160a01b900460ff16602461079682846109c0565b60ff16116107d5576000816107ac8460246109d9565b6107b691906109d9565b90506107c381600a610ad6565b6107cd908561091d565b945050610808565b600060246107e383856109c0565b6107ed91906109d9565b90506107fa81600a610ad6565b61080490856108e8565b9450505b505050919050565b6001600160a01b038116811461082557600080fd5b50565b60006020828403121561083a57600080fd5b813561084581610810565b9392505050565b6000806040838503121561085f57600080fd5b823561086a81610810565b946020939093013593505050565b60ff8116811461082557600080fd5b60008060006060848603121561089c57600080fd5b83356108a781610810565b925060208401356108b781610810565b915060408401356108c781610878565b809150509250925092565b634e487b7160e01b600052601160045260246000fd5b60008261090557634e487b7160e01b600052601260045260246000fd5b500490565b81810381811115610439576104396108d2565b8082028115828204841417610439576104396108d2565b805169ffffffffffffffffffff8116811461094e57600080fd5b919050565b600080600080600060a0868803121561096b57600080fd5b61097486610934565b945060208601519350604086015192506060860151915061099760808701610934565b90509295509295909350565b6000602082840312156109b557600080fd5b815161084581610878565b60ff8181168382160190811115610439576104396108d2565b60ff8281168282160390811115610439576104396108d2565b600181815b80851115610a2d578160001904821115610a1357610a136108d2565b80851615610a2057918102915b93841c93908002906109f7565b509250929050565b600082610a4457506001610439565b81610a5157506000610439565b8160018114610a675760028114610a7157610a8d565b6001915050610439565b60ff841115610a8257610a826108d2565b50506001821b610439565b5060208310610133831016604e8410600b8410161715610ab0575081810a610439565b610aba83836109f2565b8060001904821115610ace57610ace6108d2565b029392505050565b600061084560ff841683610a3556fea2646970667358221220b0694d7d652318c26c85476da250506f68367193bff2dab9c480b0c6d6708c9f64736f6c63430008130033",
    "linkReferences": {}
  },
  "methodIdentifiers": {
    "claimOperator()": "d54e65fb",
    "dailyLows(address,uint256)": "70c4c23f",
    "feeds(address)": "2fba4aa9",
    "getFeedPrice(address)": "e1238d9d",
    "getPrice(address,uint256)": "449e815d",
    "operator()": "570ca735",
    "pendingOperator()": "ac7e534e",
    "setFeed(address,address,uint8)": "ae10561b",
    "setPendingOperator(address)": "143d4e49",
    "viewPrice(address,uint256)": "949c4fa3"
  },
  "id": 10
}